:1006BF0041542B434D47463D310041542B434D4749
:1006CF00533D22002200596F7572204E756D626581
:1006DF00722069733A20004176672074696D652036
:1006EF00666F7220612051756575653A2000205341
:1006FF00656320004176672074696D6520746F20F3
:10070F00776169743A20004C6F6164205379737478
:10071F00656D002E00456E746572204E756D6265B5
:10072F00723A004E756D6265722052656369766527
:10073F0064212100534D532053656E6420546F3A4A
:01074F0000A9
:1008E3004F002B0D00010204050608090A03070B3C
:1008F3000F0E500018303132333435363738394122
:100903004243442300C1004100400041002A00410A
:1009130000000041000100410007004100060041C2
:100923000041014200023031410042004400120004
:1009330000000042003B0000420004000142002886
:100943000014420016000043004330323043003DA0
:030953003032300F
:040B82007FF47E017D
:100B8600E4FDFCC3ED9FEE6480F8EC64809850159C
:100B9600E4FBFA0BBB00010AEB64C84A70F50DBD15
:050BA60000010C80DEDF
:010BAB002227
:100BAC00A907EDB46304C2A08006EDB46402D2A020
:100BBC00D2A17F057E00120B86AF018F80C2A17F70
:040BCC000A020B8688
:0E0C47007D637F01120BAC7D637F02020BAC5C
:070C62007D637FC0020BACB3
:060A13007BFF7A07792445
:0B0A1900900049EBF0A3EAF0A3E9F025
:100A2400E4A3F0A3F0900049E0FBA3E0FAA3E0F90B
:100A3400A3E0FEA3E0F5828E8312018EFF60157D94
:100A440064120BAC90004DE004F070D990004CE0BF
:040A540004F080D159
:010A5800227B
:100B2B00E4FDFC742B2DF58274003CF583E0B507D6
:100B3B000D74182DF58274003CF583E0FF220DBD7A
:0B0B4B0000010CED640F4C70DA7F2AF3
:010B5600227C
:070C6900EE4F24FF92A222CE
:05000600D2A2D2882205
:100BD000EF139293EEA2E713FEEF13FF139294EE3E
:100BE000A2E713FEEF13FF139295EEA2E713EF13A4
:040BF00013929622A4
:100AFC00EF64014E7004D2908020EF64024E7007B8
:100B0C00C290D291C29222EF64034E7007C290C27F
:0F0B1C0091D29222EF4E7006C290C291C29222E5
:100C0B00E4FFFE120AFCC297D28A758901758A30FD
:060C1B00758CF8D28C225A
:100BF400D2A17D637F06120BAC7D637F0C120BAC1C
:070C04007D637F38020BAC99
:100C2100058F75985074802587F587741E259BF56F
:050C31009B759AB12241
:10086C00900007E0FF900042E0C39FFFE49400CFAC
:10087C002401CF3400FE900028E0FCA3E0FD12011F
:10088C00BB900016EEF0A3EFF0900016E0FEA3E094
:10089C00FF7C007D641201CDAA04AB057D0A7C00AF
:1008AC00AF03AE021201CDED243090003FF07D0A73
:1008BC007C00AF03AE021201CDEF243090003EF06D
:1008CC00900016E0FEA3E0FF7C007D641201CDEFEA
:0708DC00243090003DF022E2
:060A93007BFF7A0679FDED
:0B0A9900900049EBF0A3EAF0A3E9F0A5
:100AA400E4FFFE900049E0FBA3E0FAA3E0F98F82A3
:100AB4008E8312018E600EF5993099FDC2990FBF95
:050AC40000010E80DEC0
:010AC900220A
:06058E007B017D037C00EF
:1005940090004CECF0A3EDF0900049EBF0A3EAF0EE
:0305A400A3E9F0D8
:1005A700120175B4302790004EE4F0A304F09000D8
:1005B70049E0FBA3E0FAA3E0F990000112018EB431
:1005C700301290004EE4F0A37402F08007E490002C
:1005D7004EF0A3F090004DE024FFFF90004CE03474
:1005E700FFFE90004EE0FCA3E0FDD39FEE6480F891
:1005F700EC6480985029900049E0FBA3E0FAA3E05F
:10060700F98D828C8312018EF5993099FDC29990EC
:0F061700004FE004F070BD90004EE004F080B59D
:0106260022B1
:100C360075990D3099FDC29975990A3099FDC29939
:010C4600228B
:10041D00900047E4F0A304F053A8FA7FD07E0712B2
:10042D000B867BFF7A0679BF120A99120C367FDC98
:10043D007E05120B867BFF7A0679C9120A997B011C
:10044D007A007908120A997BFF7A0679D3120A99F4
:10045D00120C36C298900047E07002A3E060713034
:10046D0098FDC298E599B43EEC120B827BFF7A069B
:10047D0079D5120A997B017A0079027D027C0012EE
:10048D000594120C367BFF7A0679E6120A997A00EA
:10049D00794312058E120A93120C3612086C7BFFEB
:1004AD007A077903120A997A00793D12058E120A9C
:1004BD0093E4900047F0A3F0120B8275991A3099CE
:1004CD00FDC299120C367F887E13120B86020471C1
:0304DD0043A885AC
:0104E00022F9
:100B5700900003E004F0900042E004F0900003E00E
:100B6700B43A177430F0900002E004F0E0B43A0AA7
:0B0B77007401F0E4A3F0900042F022B3
:100A590090003AE0FF90002AE0FE2408F582E43491
:100A690000F583EFF074082EF582E43400F583E095
:100A7900FF7D64120BAC90002AE004F07F0A7E002F
:0A0A8900120B86900040E004F022FA
:100ACA0090002AE014F0900040E014F09000467480
:100ADA00C0F090002AE0FF900046E02FF0E0FF7D92
:100AEA0063120BAC7D647F20120BACE0FF7D6302C6
:020AFA000BAC43
:0C0C5500E4FF7E0A900008E4F0A3DEFC3F
:010C61002270
:10033B00E47BE87A03F9F8900012E0FCA3E0FDA35C
:10034B00E0FEA3E0FF12025EE41200B67B667A6663
:10035B0079E6783F1200191200F490003BEEF0A3FF
:10036B00EFF090001212030A00000000900028E04A
:10037B00FEA3E0FF900004E0FCA3E0FD1201BB90A4
:10038B000028EEF0A3EFF090003BE0FEA3E0FF901F
:10039B000029E02FF0900028E03EF0900005E004EB
:1003AB00F07006900004E004F0900028E0FEA3E05B
:1003BB00FF900004E0FCA3E0FD1201CD900028EEBD
:1003CB00F0A3EFF0900028E0FEA3E0FF7C007D643B
:1003DB001201CDAA04AB057D0A7C00AF03AE02125D
:1003EB0001CDED2430900045F07D0A7C00AF03AECB
:1003FB00021201CDEF2430900044F0900028E0FE73
:10040B00A3E0FF7C007D641201CDEF24309000430C
:02041B00F022CD
:03000300020750A1
:10075000C0E0C083C082C0D075D000C000C001C05E
:1007600002C003C004C005C006C0077F0A7E001295
:100770000B867580FFE4FF120C697F05120B8690D3
:10078000003AE580F07F01120C69E0540FFFF0128F
:100790000B2B90003AEFF06442600AE06441600580
:1007A000120A59802290003AE0B44205120ACA8027
:1007B0001690003AE0B4410F900040E0B40A08D22D
:1007C00000E4F090002AF0D007D006D005D004D085
:1007D00003D002D001D000D0D0D082D083D0E0327C
:03000B00020627C3
:10062700C0E0C0F0C083C082C0D075D000C000C099
:1006370004C005C006C007C28C758A30758CF8D215
:100647008C900041E024FE601314601C2402702784
:100657007F017E00120AFC90000080167F027E0058
:10066700120AFC900001800A7F037E00120AFC90A8
:100677000006E0FF120BD0900041E004F0E0B40464
:10068700037401F0900012E0FCA3E0FDA3E0FEA3D9
:10069700E02401FFE43EFEE43DFDE43CFC90001253
:1006A7001202FED007D006D005D004D000D0D0D09B
:0806B70082D083D0F0D0E032C4
:030013000204E103
:1004E100C0E0C0F0C083C082C0D075D000C000C0E1
:1004F10001C002C003C004C005C006C0079000428D
:10050100E0FF900007E0D39F5065E4FFFE120AFC74
:10051100D2977F32120B8620A3139000067402F04B
:10052100C2A57FB87E0B120B86D2A5801430A31111
:100531009000067401F0C2A47FB87E0B120B86D224
:10054100A4900001E004F0900007E004F0900001A5
:10055100E0D394094014E4F0900000E004F0E0D30B
:1005610094094006E4F0900007F0C29712033B5350
:1005710088F7D007D006D005D004D003D002D0012F
:0D058100D000D0D0D082D083D0F0D0E032B6
:10095700120C21120006120BF4120C0B120C557517
:10096700A887120C477BFF7A077916120A197FD0DE
:100977007E07120B86E4900047F0A3F07BFF7A070F
:100987007922120A197FE87E03120B86900048E04D
:1009970004F07006900047E004F0D3900048E0941C
:0E09A70002900047E06480948040D1020C472B
:1009B500120957120A13120C627F017E00120C698C
:1009C5003000FDC200120C477BFF7A077932120A0C
:1009D500197FE87E03120B86120C477FE87E03120F
:1009E5000B867BFF7A077943120A19120C627B0189
:1009F5007A007908120A1912041D120C55120B57A8
:0E0A0500120B82120C47120A13120C6280B2FE
:1000160002016AEC5D046005E859047003020160A0
:1000260012012B580460F6EC4860F2EC7004FDFEF9
:10003600FF22C860DB2481C85009C39860025006BD
:100046000201679850CAF582E9294B4A7005AB82CE
:1000560002015675F0007C1A7880C3EF9BEE9AED8C
:1000660099400DC3EF9BFFEE9AFEED99FDE842F035
:10007600DC23ACF0D0E0FFD0E0FED0E0FDAB822088
:10008600E7101BEB60BAEC2CFCEF33FFEE33FEED12
:1000960033FD020142E803F830E705C0F075F000D1
:1000A600EF2FFFEE33FEED33FD40B830E7C280AAF6
:1000B60075F020800E75F010800575F0087D007EC5
:1000C600007F003392D530D5031202F0EC33401096
:1000D600EF33FFEE33FEED33FDEC33FCD5F0ED22CE
:0E00E600E5F0247EA2D513CC92E7CDCEFF220A
:1000F400EDD2E7CD33EC3392D524814006E4FFFE04
:10010400FDFC22FCE4CFCECDCC24E0501174FF8062
:10011400EDC3CC13CCCD13CDCE13CECF13CF0470FF
:07012400F030D5DE0202F00D
:10012B00E9D2E7C933E833F892D5EDD2E7CD33EC1A
:07013B0033FC5002B2D52293
:10014200EC30E7100FBF000C0EBE00080DBD00041E
:100152000BEB6014A2D5EB13FCED92E7FD2274FFCA
:10016200FCFDFEFF22E480F8A2D574FF13FC7D8023
:03017200E480EF37
:030000000207E014
:0C07E000787FE4F6D8FD75812002082720
:10017500BB010689828A83E0225002E722BBFE0288
:09018500E32289828A83E49322BB
:10018E00BB010CE58229F582E5833AF583E0225026
:10019E0006E92582F8E622BBFE06E92582F8E22270
:0D01AE00E58229F582E5833AF583E493228A
:1001BB00EF8DF0A4A8F0CF8CF0A428CE8DF0A42E58
:0201CB00FE2212
:1001CD00BC000BBE0029EF8DF084FFADF022E4CC16
:1001DD00F875F008EF2FFFEE33FEEC33FCEE9DECDF
:1001ED00984005FCEE9DFE0FD5F0E9E4CEFD22ED25
:1001FD00F8F5F0EE8420D21CFEADF075F008EF2F6F
:10020D00FFED33FD4007985006D5F0F222C398FD5F
:05021D000FD5F0EA22FC
:1002220075F008758200EF2FFFEE33FECD33CDCC93
:1002320033CCC58233C5829BED9AEC99E582984016
:100242000CF582EE9BFEED9AFDEC99FC0FD5F0D6F3
:10025200E4CEFBE4CDFAE4CCF9A88222B800C1B91D
:100262000059BA002DEC8BF084CFCECDFCE5F0CB5B
:10027200F97818EF2FFFEE33FEED33FDEC33FCEB94
:1002820033FB10D703994004EB99FB0FD8E5E4F94F
:10029200FA227818EF2FFFEE33FEED33FDEC33FC3C
:1002A200C933C910D7059BE99A4007EC9BFCE99A30
:1002B200F90FD8E0E4C9FAE4CCFB2275F010EF2F75
:1002C200FFEE33FEED33FDCC33CCC833C810D70775
:1002D2009BEC9AE899400AED9BFDEC9AFCE899F8B0
:0E02E2000FD5F0DAE4CDFBE4CCFAE4C8F92243
:0E02F000C3E49FFFE49EFEE49DFDE49CFC221F
:0C02FE00ECF0A3EDF0A3EEF0A3EFF02273
:10030A00A8828583F0D083D082120321120321129E
:10031A000321120321E473E493A3C583C5F0C583C3
:10032A00C8C582C8F0A3C583C5F0C583C8C582C83D
:01033A0022A0
:1007EC000209B5E493A3F8E493A34003F68001F265
:1007FC0008DFF48029E493A3F85407240CC8C3330E
:10080C00C4540F4420C8834004F456800146F6DFDC
:10081C00E4800B01020408102040809008E3E47E81
:10082C00019360BCA3FF543F30E509541FFEE493D1
:10083C00A360010ECF54C025E060A840B8E493A398
:10084C00FAE493A3F8E493A3C8C582C8CAC583CAC3
:10085C00F0A3C8C582C8CAC583CADFE9DEE780BE7B
:0109560000A0
:00000001FF
